:1003AC00011200011600011132C104C102C103C1C6
:0503BC0000C101C105B4
:100066007FFF120597E4FF1205A51205781203DA41
:1000760012054DE4FF1205638F111205D5D2AF129A
:1000860003638F1FE51FF46062E51F24FE601114F1
:10009600602614603F2403705220044FB202804B46
:1000A600300204B2058044B20420043FAD11E4FFDF
:1000B6001205201205D58033300205751201802BFA
:1000C6002002283004250511E511D39463401C75E0
:1000D60011638017300205E4F512800F20020C3000
:1000E6000409E5117003751101151130030EC203E1
:1000F6002002047FFE80027FFD12059730012AC28E
:10010600011200588F1FEF75F063A4FFAEF07C005C
:100116007DFF1200038F1720020FE517C3951150BC
:10012600057512018003E4F512200003020085C262
:100136000030020FE517C395115008200505751606
:10014600018003E4F516E512C454F0FFE516C43346
:0D0156003354C04FF51FFF1205A5020085B0
:0805D5007F6C7E91DEFEDFFC6D
:0105DD0022FB
:0E059700E5A0540F4480F5A08F8053A00F22E2
:0E05A500E5A0540F44A0F5A08F8053A00F22B4
:0E05B30080828486888A8C81838587898B8DDF
:0903C100071800300801010118C1
:10044100C29700E4FEEF30E005D2A3008003C2A30F
:0F04510000D29700C29700EFC313FF0EBE08E65C
:010460002279
:10048000E4FFFEEFC313FF30A3054307808003534F
:0C049000077FD29700C297000EBE08E75D
:01049C00223D
:1004BA00AE07C29300C29700D293005306FEAF065E
:0C04CA00120441AF05120441C29300224D
:10046100C29300C29700D2930043070112044112C4
:0E0471000480C29300D29700D2A300C2A30061
:01047F00225A
:1003DA00E4FD7F8E1204BAE4FCEC9005B393FF743B
:1003EA00182CF8E6FD1204BA0CBC07ED7D807F8E4E
:0303FA000204BA40
:10053700E4FDED9005BA93FF12046174182DF8A637
:05054700070DBD07EDEA
:01054C00228C
:0A05C100C0F9A4B0999282F880906E
:0303CA0001080027
:10016300120537E518C4540F75F00AA4FFE51854B7
:100173000F2FF513E519C4540F75F00AA4FFE51901
:10018300540F2FF515E51AC4540F75F00AA4FFE5B3
:100193001A540F2FF51420043C75F00A849005C1FE
:1001A30093F509E51475F00A84E5F093F50A750BE8
:1001B300BFE51575F00A8493F50CE51575F00A840F
:1001C300E5F093F50D750EFFE51775F00A8493F5C9
:1001D3000FE51780207509BF750ABF750BFF750CF6
:1001E300FF750DFF750EFFE51175F00A849005C1CB
:0F01F30093F50FE51175F00A84E5F093F51022EE
:10031A00120163E5A0540F44E0F5A07580FF53A0D5
:10032A000FE5A0540F44C0F5A0AF087401A8070850
:10033A008002C333D8FCF58053A00FE5A0540F44C4
:10034A00E0F5A074092508F8E6F58053A00F050822
:09035A00E508B40803E4F50822EB
:0C03CD00022100000223000002250000B5
:10057800438E0475D7CD75D6D4438E1043AF04226D
:0300630002020294
:10020200C0E0C0F0C083C082C0D075D000C000C0C2
:0D02120001C002C003C004C005C006C00743
:10021F000522E522700205210524E524700205233D
:10022F000526E52670020525C3E52294C8E521942D
:10023F00004008752100752200D203C3E52494996C
:10024F00E52394004008752300752400D201C3E50F
:10025F00269401E52594014008752500752600D2E6
:04026F000012031A5C
:10027300D007D006D005D004D003D002D001D000DF
:0B028300D0D0D082D083D0F0D0E03289
:1004F0007F05000000000000000000000000000078
:0705000000AE071FEE70EBD7
:0105070022D1
:0F058800D2A1D2A01204F0C2A11204F0C2A0228C
:1004D60012042012040812049DAD07E4FF12050859
:0A04E600C2A1D2A01204F0D2A1229C
:10050800EF6004C2A18002D2A11204F0D2A01204AA
:08051800F0C2A0D2A10204F020
:0B03FD00120420120408AF03120420B9
:10040800D2A11204F0D2A01204F030A107C2A012A7
:0804180004E6C322C2A0D322B6
:02042000AD0726
:10042200E4FCED30E704D2A18002C2A11204F0D2B2
:0E043200A0ED25E0FD1204F0C2A00CBC08E411
:010440002299
:10049D00E4FCD2A01204F0ED25E0FD30A1034305EC
:0C04AD0001C2A01204F00CBC08E8AF056E
:0104B9002220
:10054D001205887F901204201204087F03120420E4
:06055D001204080204E68E
:0A0058001205887F911204D6AF054F
:01006200227B
:10052000AB05AA071205887FA0120420120408AFA9
:07053000021203FD0204E6C4
:02056300AB07E4
:100565001205887FA01203FD1205887FA11204D60B
:02057500AF05D0
:010577002261
:0905CB00007F2C7E04DEFEDFFC43
:0105D4002204
:100363007DFFE5B0540FFF640F60341205CBE5B099
:10037300540FFF640F6028EF24F9601724FC600F0B
:1003830024FE60071470187D0180147D0280107DA7
:1003930003800C7D048008EF640F600A1205CBE52F
:0803A300B0540FFF80F1AF051B
:0103AB00222F
:0300000002028E6B
:0C028E00787FE4F6D8FD7581260202D5C9
:10000300BC000BBE0029EF8DF084FFADF022E4CCE1
:10001300F875F008EF2FFFEE33FEEC33FCEE9DECAA
:10002300984005FCEE9DFE0FD5F0E9E4CEFD22EDF0
:10003300F8F5F0EE8420D21CFEADF075F008EF2F3A
:10004300FFED33FD4007985006D5F0F222C398FD2B
:050053000FD5F0EA22C8
:10029A00020066E493A3F8E493A34003F68001F214
:1002AA0008DFF48029E493A3F85407240CC8C33365
:1002BA00C4540F4420C8834004F456800146F6DF34
:1002CA00E4800B01020408102040809003ACE47E15
:1002DA00019360BCA3FF543F30E509541FFEE49329
:1002EA00A360010ECF54C025E060A840B8E493A3F0
:1002FA00FAE493A3F8E493A3C8C582C8CAC583CA1B
:10030A00F0A3C8C582C8CAC583CADFE9DEE780BED2
:0103D9000023
:00000001FF
