:1006BB00010B1E010914010A01040D0000000001C9
:0A06CB000C00C103C102C101C1000F
:100239007FFF120783E4FF12079112077312076009
:10024900D2AF1204E9EFF47003020332EFB40F00E6
:100259004003020332900265F82828730202E7027C
:1002690002E70202E70203320202F50202F5020284
:10027900F5020332020306020306020306020332F1
:1002890002031F0202920202D7200207D202D20001
:10029900020332200203020332E50D700CE50E70F1
:1002A90008E50F7004E5106014E50D75F00AA42542
:1002B9000EF50BE50F75F00AA42510F509E4F50D07
:1002C900F50EF50FF510F50CC202C200805B300285
:1002D90058E4F50DF50EF50FF510F50C804B050CEE
:1002E900E50CC39405504230023F8021050CE50C12
:1002F900C394055034300231EF14FF8010050CE52A
:100309000CC394055023300220EF24FEFF740C2502
:100319000CF8A6078013050CE50CC39405500A30A8
:100329000207740C250CF87609300325C20312065E
:100339007A1201AA8F08E508C395095005E4F50A60
:10034900800FE508D3950B4005750A028003750AED
:100359000120010302024BC201E50BC39509500AB2
:100369007FFD120783C28C02024B200013D28CE559
:100379000AB402047F108002E4FF12079102024BC3
:0A038900C28C7FFF12078302024BB3
:0E078300E5A0540F4480F5A08F8053A00F22F4
:0E079100E5A0540F44A0F5A08F8053A00F22C6
:04072C007F057E00C7
:10073000EF1FAA0670011E4A600BE4FDEDC3940C86
:0507400050EE0D80F7F2
:010745002291
:1006E700C204D2947F0C7E00120730C2947F507EE2
:1006F70000120730D2947F0A7E00120730A294922C
:060707000412072CA204FD
:01070D0022C9
:02070E00A90739
:10071000E4FBC294E913929412072CD294E9C31318
:0C072000F90BBB08ED7F057E00020730DE
:10074600E4FBC294ECC313FCD294309403430480BC
:0907560012072C0BBB08EBAF04E9
:01075F002277
:10067A001206E77FCC12070E7F4412070E7FC87E50
:10068A00001207301206E77FCC12070E7FBE120750
:10069A000E120746A907120746EF540FFEE9FFFD9F
:1006AA00AC06E4120171E4FBFA7980783D12006627
:0106BA00221D
:0406D500021A000005
:10077300438E0475D7CD75D6D4438E1043AF042270
:10076000538E7F5389F0E4F58A758CB8C28DC28CA4
:03077000D2A922E9
:03000B000203935A
:10039300C0E0C0F0C083C082C0D075D000C000C030
:0D03A30001C002C003C004C005C006C007B1
:1003B000051BE51B7002051AE50A701AC3E51B94BC
:1003C00028E51A94005002803FC3E51B944FE51ABC
:1003D0009400504A8041E50A6401701CC3E51B94F7
:1003E00014E51A94005002801FC3E51B9427E51AF8
:1003F0009400500280218026E50AB4022CC3E51B3C
:10040000940AE51A940050047FFE800DC3E51B9406
:1004100013E51A940050077FFF120783800B7FFEBD
:09042000120783751A00751B0018
:10042900D007D006D005D004D003D002D001D00027
:0B043900D0D0D082D083D0F0D0E032D1
:0300630002060989
:10060900C0E0C0F0C083C082C0D075D000C000C0B7
:0D06190001C002C003C004C005C006C00738
:10062600051DE51D7002051C051FE51F7002051E50
:10063600C3E51D9473E51C94014008751C00751DE7
:1006460000D203C3E51F94C5E51E94014008751E3C
:0906560000751F00D20112000E14
:10065F00D007D006D005D004D003D002D001D000EF
:0B066F00D0D0D082D083D0F0D0E03299
:0A005700C0F9A4B0999282F88090DD
:0306D9000111000C
:1004440020022A7512BFE50A90005793F51375141C
:10045400BF7515FF7516FF7517FFE50875F00A845B
:1004640093F518E50875F00A84E5F0807430027499
:100474007512BF7515FF7516FF7517BFE50C700D66
:100484007513FF7514FF7518FF7519FF22E50CB479
:100494000109E50D90005793F51322E50CB4020E03
:1004A400E50D90005793F513E50E93F51422E50C32
:1004B400B40313E50D90005793F513E50E93F5146B
:1004C400E50F93F51822E50CC394044017E50D904D
:1004D400005793F513E50E93F514E50F93F518E51E
:0504E4001093F5192240
:10000E00120444E5A0540F44E0F5A07580FF53A000
:10001E000FE5A0540F44C0F5A0AF117401A8070856
:10002E008002C333D8FCF58053A00FE5A0540F44D3
:10003E00E0F5A074122511F8E6F58053A00F051116
:09004E00E511B40803E4F51122E8
:0A06DC00022300000121000122FFAB
:1004E90075B0F0D2C4D2C2E5B0B4F00630C403206E
:1004F900C20A0524E524700905238005E4F523F5DE
:1005090024C3E52494F4E5239401404EE4F523F54E
:100519002475210120C4027E0120C2027E02E5B0B9
:1005290020E5027E03E5B020E4027E0475B00FC227
:10053900C4C2C2E5B020E004EE14F522E5B020E122
:1005490005EE2403F522E5B020E205EE2407F522A5
:10055900E5B020E305EE240BF52275B00FC2C4C245
:10056900C2E521B4010BE5B0B40F06E4F521AF22D1
:03057900227FFFDF
:01057C00225C
:10006600EC4D6011E8497017ED33EC3304600DE494
:10007600FCFFFEFD22E933E8330470F80202161293
:1000860001E158046009E4CC248150062850090295
:10009600022028400302021DC0E0EB4A7044B980EA
:1000A60006D0E0FB02020CEF4E701CBD8008EBFF91
:1000B600EAFEE9FD80EBE98DF0A4FEE5F002014FD2
:1000C600E9CDF9EAFEEBFFEF89F0A4FCE5F0CE8975
:1000D600F0A42EFFE435F0CD89F0A42DFEE435F032
:1000E6008067EF4E7005BD80D780C3EF8BF0A4AC60
:1000F600F0EE8BF0A42CFCE435F0F8EF8AF0A42C9B
:10010600E5F038FCE433CB8DF0A42CFCE5F03BF8AD
:10011600EE8AF0A42CFCE5F038F8E433CF89F0A49D
:100126002CFCE5F038CF3400CE89F0A42FFFE5F0A3
:100136003EFEE433C98DF0A42EFEE5F039CD8AF0FB
:10014600A42FFFE5F03EFEE43DFD33D0E0FB500773
:100156000BBB000F020220EC2CFCEF33FFEE33FE4C
:06016600ED33FD0201F87B
:10016C0075F020800E75F010800575F0087D007E0E
:10017C00007F003392D530D50312022BEC334010A4
:10018C00EF33FFEE33FEED33FDEC33FCD5F0ED2217
:0E019C00E5F0247EA2D513CC92E7CDCEFF2253
:1001AA00EDD2E7CD33EC3392D524814006E4FFFE4D
:1001BA00FDFC22FCE4CFCECDCC24E0501174FF80AC
:1001CA00EDC3CC13CCCD13CDCE13CECF13CF047049
:0701DA00F030D5DE02022B1C
:1001E100E9D2E7C933E833F892D5EDD2E7CD33EC64
:0701F10033FC5002B2D522DD
:1001F800EC30E7100FBF000C0EBE00080DBD000468
:100208000BEB6014A2D5EB13FCED92E7FD2274FF13
:10021800FCFDFEFF22E480F8A2D574FF13FC7D806C
:03022800E480EF80
:0300000002057D79
:0C057D00787FE4F6D8FD7581240205C4E7
:0E022B00C3E49FFFE49EFEE49DFDE49CFC22E4
:10058900020239E493A3F8E493A34003F68001F24D
:1005990008DFF48029E493A3F85407240CC8C33373
:1005A900C4540F4420C8834004F456800146F6DF42
:1005B900E4800B01020408102040809006BBE47E11
:1005C900019360BCA3FF543F30E509541FFEE49337
:1005D900A360010ECF54C025E060A840B8E493A3FE
:1005E900FAE493A3F8E493A3C8C582C8CAC583CA29
:1005F900F0A3C8C582C8CAC583CADFE9DEE780BEE1
:0106E6000013
:00000001FF
