:1007AA000122000124000125020127040121000180
:1007BA002A63012800012300012600012900C1043F
:0A07CA00C105C100C101C102C10355
:1002D900E4FF1209348F257F011209348F27E522A3
:1002E900F4FF1209A5AF241209B312004D12094CEB
:1002F9001209841209721206E6EFF470030203AEC2
:10030900EF14607A1460541460301460030203AE71
:10031900E521640160030203AE3002030203AED299
:100329008CD202E52454EF4410F524E528B40105E4
:100339008525268070852726806B300268B28C203F
:100349008C0A7521035324EFD2008059752101E5E8
:100359002454EF4410F524C200804AE5217046D2A6
:10036900030529E529C39403403BE4F529C203ADFC
:1003790025FF1208EAAD277F011208EA802730031A
:1003890024E529B4010E0525E525D3940A401675FF
:1003990025018011E529B4020C0527E527D3940A24
:1003A900400375270130046E20026B1208468E2B1C
:1003B9008F2CC3E52C94E8E52B94035012E52254C5
:1003C900F84401F5225324BFC200E4F5218045C356
:1003D900E52C94A0E52B940F40152000125322F828
:1003E900D200E52454BF4440F5247521028025C379
:1003F900E52C94E8E52B9403401AE52C94A0E52B11
:10040900940F5010E52254F84402F5225324BFC238
:1004190000752101C204E521C39401401A30011776
:1004290020021412074BE52AC3941E5005752801B2
:100439008003752802C2012005030202FFE522F4A8
:0E044900FF1209A5AF241209B3C2050202FF7B
:0E09A500E5A0541F4480F5A08F8053A01F22B0
:0E09B300E5A0541F44A0F5A08F8053A01F2282
:100904007F0500000000000000000000000000005F
:0709140000AE071FEE70EBBF
:01091B0022B9
:0F099600D2A1D2A0120904C2A1120904C2A02248
:1008D00012089212087A1208B3AD07E4FF12091C3D
:0A08E000C2A1D2A0120904D2A12285
:10091C00EF6004C2A18002D2A1120904D2A0120974
:08092C0004C2A0D2A1020904DB
:0B086F0012089212087AAF03120892E0
:10087A00D2A1120904D2A012090430A107C2A012FF
:08088A0008E0C322C2A0D32242
:02089200AD07B0
:10089400E4FCED30E704D2A18002C2A1120904D223
:0E08A400A0ED25E0FD120904C2A00CBC08E482
:0108B2002223
:1008B300E4FCD2A0120904ED25E0FD30A1034305B9
:0C08C30001C2A01209040CBC08E8AF053B
:0108CF002206
:10004D001209967F9012089212087A7F0312089275
:06005D0012087A0208E01F
:100846001209967F911208D0AF05AC07E412021682
:100856007B007A40799C7845120066E4FBFA797F42
:08086600784312016F12024AEF
:01086E002267
:0809C1007F6C7E91DEFEDFFC7D
:0109C900220B
:1008EA00AB05AA071209967FA012089212087AAFDE
:0A08FA000212086F1208E00209C1A3
:02093400AB070F
:100936001209967FA012086F1209967FA11208D09D
:050946001209C1AF051C
:01094B002289
:1007D4000112000213000002080000020A000002D5
:0B07E4000C0000020E000002100000DC
:10097200438E0475D7CD75D6D4438E1043AF04D2BF
:02098200AF22A2
:10098400538EBF53890FE4F58BF58DC28FC28ED27F
:02099400AB2294
:10094C00438E805389F0758ACD758CD4C28DC28C40
:03095C00D2A922FB
:03000B0002001ED2
:04001E00C0E0C0D0AE
:100022003002080509E50970020508C3E50994E7ED
:10003200E50894034010D52607C28CC2025324EF70
:06004200750800750900BD
:05004800D0D0D0E03231
:03001B00020018C8
:030018000512329C
:030063000204573D
:10045700C0E0C0F0C083C082C0D075D000C000C06B
:0D04670001C002C003C004C005C006C007EC
:100474000514E51470020513D394F4E513940140B4
:1004840006751300751400200408050BE50B7002B3
:10049400050A200508050DE50D7002050C30000A5B
:1004A400050FE50F700D050E8009200006750E007E
:1004B400750F00C3E50B9496E50A94004008D20436
:1004C400750A00750B00C3E50D94C8E50C94004053
:1004D40008D205750C00750D00E521B4011B05114A
:1004E400E51170020510C394C8E51094004010751E
:1004F4001000751100D201800675100075110030CE
:100504000057D3E50F94F3E50E9401501FE521B491
:10051400020AE52254F84404F522803DE5216403EF
:100524007037E52254F74408F522802DC3E50F9473
:10053400E7E50E9403500FE521B402055322F88039
:10054400185322F78013E521B402055322F88003DF
:0C0554005322F7750E00750F001207FD12
:10056000D007D006D005D004D003D002D001D000EF
:0B057000D0D0D082D083D0F0D0E03299
:0A000E00C0F9A4B0999282F8809026
:0307EF00011500F1
:10057B00E521701B2002182003157516FF7517FF58
:10058B007518FF7519FF751AFF751BFF020653E5EA
:10059B00216401703020022D20032A7516F975177E
:1005AB00FFE52A75F00A8490000E93F518E52A757D
:1005BB00F00A84E5F093F519751AFF751BFF751C8E
:1005CB00FFE528802930022A7516A47517FF7518C8
:1005DB00FF7519FF751AFF751BFFE52675F00A8469
:1005EB0090000E93F51CE52675F00A84E5F093F563
:1005FB001D223003597516B07517FF7518FFE525C9
:10060B0075F00A8490000E93F519E52575F00A84B0
:10061B00E5F093F51A751BFFE52775F00A8493F542
:10062B001CE52775F00A84E5F093F51DC3E51494DA
:10063B00FAE51394005017E529B401077519FF75F6
:0F064B001AFF22E529B40206751CFF751DFF2258
:1007FD0012057BE5A0541F44E0F5A07580FF53A0C2
:10080D001FE5A0541F44C0F5A0AF157401A807083B
:10081D008002C333D8FCF58053A01FE5A0541F44BC
:10082D00E0F5A074162515F8E6F58053A01F051503
:09083D00E515B40803E4F51522E9
:05000300007F19DFFE83
:0100080022D5
:10095F007E08C290120003D290120003AF061EEF62
:02096F0070F026
:010971002263
:10074B0012095FD28E309107E512D3940240F6C2A4
:10075B008EE512B40302803CAF8DEF7D00FC7E0072
:10076B00E5127810C333CE33CED8F9FFEE4CFEEF43
:10077B004DFFAD8BEEFCEF4DFDE41202117B967A33
:10078B0043798B783C12006612024A8F2AE52AC302
:0F079B0094634003752A63E4F58DF58BF5122204
:0A07F200022F0000012D00012EFF70
:1006E600E5B0540F640F600A0530E5307009052F38
:1006F6008005E4F52FF530C3E53094E8E52F940343
:10070600402DE4F52FF530752D01E5B0540F24F991
:10071600601A24FC601124FE6008147012752E0104
:10072600800D752E028008752E038003752E04E554
:100736002DB4010EE5B0540FFFBF0F06E4F52DAF43
:040746002E227F0FD1
:01074A00228C
:10006600EC4D6011E8497017ED33EC3304600DE494
:10007600FCFFFEFD22E933E8330470F80202B612F3
:10008600028158046009E4CC2481500628500902F4
:1000960002C02840030202BDC0E0EB4A7044B980AA
:1000A60006D0E0FB0202ACEF4E701CBD8008EBFFF1
:1000B600EAFEE9FD80EBE98DF0A4FEE5F002014FD2
:1000C600E9CDF9EAFEEBFFEF89F0A4FCE5F0CE8975
:1000D600F0A42EFFE435F0CD89F0A42DFEE435F032
:1000E6008067EF4E7005BD80D780C3EF8BF0A4AC60
:1000F600F0EE8BF0A42CFCE435F0F8EF8AF0A42C9B
:10010600E5F038FCE433CB8DF0A42CFCE5F03BF8AD
:10011600EE8AF0A42CFCE5F038F8E433CF89F0A49D
:100126002CFCE5F038CF3400CE89F0A42FFFE5F0A3
:100136003EFEE433C98DF0A42EFEE5F039CD8AF0FB
:10014600A42FFFE5F03EFEE43DFD33D0E0FB500773
:100156000BBB000F0202C0EC2CFCEF33FFEE33FEAC
:06016600ED33FD020298DA
:10016C000202C0EC5D046005E8590470030202B69B
:10017C00120281580460F6EC4860F2EC7004FDFE4B
:10018C00FF22C860DB2481C85009C3986002500666
:10019C000202BD9850CAF582E9294B4A7005AB8220
:1001AC000202AC75F0007C1A7880C3EF9BEE9AEDDE
:1001BC0099400DC3EF9BFFEE9AFEED99FDE842F0DE
:1001CC00DC23ACF0D0E0FFD0E0FED0E0FDAB822031
:1001DC00E7101BEB60BAEC2CFCEF33FFEE33FEEDBB
:1001EC0033FD020298E803F830E705C0F075F00023
:1001FC00EF2FFFEE33FEED33FD40B830E7C280AA9F
:10020C0075F020800E75F010800575F0087D007E6D
:10021C00007F003392D530D5031202CBEC33401063
:10022C00EF33FFEE33FEED33FDEC33FCD5F0ED2276
:0E023C00E5F0247EA2D513CC92E7CDCEFF22B2
:10024A00EDD2E7CD33EC3392D524814006E4FFFEAC
:10025A00FDFC22FCE4CFCECDCC24E0501174FF800B
:10026A00EDC3CC13CCCD13CDCE13CECF13CF0470A8
:07027A00F030D5DE0202CBDB
:10028100E9D2E7C933E833F892D5EDD2E7CD33ECC3
:0702910033FC5002B2D5223C
:10029800EC30E7100FBF000C0EBE00080DBD0004C7
:1002A8000BEB6014A2D5EB13FCED92E7FD2274FF73
:1002B800FCFDFEFF22E480F8A2D574FF13FC7D80CC
:0302C800E480EFE0
:0300000002065A9B
:0C065A00787FE4F6D8FD7581300206A11F
:0E02CB00C3E49FFFE49EFEE49DFDE49CFC2244
:100666000202D9E493A3F8E493A34003F68001F2CF
:1006760008DFF48029E493A3F85407240CC8C33395
:10068600C4540F4420C8834004F456800146F6DF64
:10069600E4800B01020408102040809007AAE47E43
:1006A600019360BCA3FF543F30E509541FFEE49359
:1006B600A360010ECF54C025E060A840B8E493A320
:1006C600FAE493A3F8E493A3C8C582C8CAC583CA4B
:1006D600F0A3C8C582C8CAC583CADFE9DEE780BE03
:0107FC0000FC
:00000001FF
