:10067800011B320219000002170000C102C101C1AA
:010688000071
:10044F007FFF12079D12077F1207601207501207D6
:10045F003DD2AF12062F8F1CE51CF4602DE51C2436
:10046F00FE6015047024200221E4F519F51AF51524
:10047F00F516D202D28C801230020FC202E519C3D8
:10048F0013F517E51A13F518C28C30010DC20130A0
:10049F000205120770800312077F3000B6C20012E8
:1004AF0006F28F1CAC1CE41202167B007A40799C7A
:1004BF007845120066E4FBFA797F784312016F12D8
:1004CF00024AC3EF94E2EE940450077FFE12079D99
:0A04DF0080817FFF12079D02046276
:0E079D00E5A0540F4480F5A08F8053A00F22DA
:0F077000E5A0540F44A0F5A075801053A00F22F0
:0F077F00E5A0540F44A0F5A0E4F58053A00F228D
:0A005800C0F9A4B0999282F88090DC
:0306890001080065
:10032E003002030203B87509FF900058E493FF549E
:10033E007FF50A90005DE493F50B8F0CAE17AF18A6
:10034E007C037DE81202CB74582FF58274003EF5C3
:10035E0083E493F50DAE17AF187C037DE81202CB44
:10036E007E007F64CFCDCFCECCCE1202CB74582F71
:10037E00F58274003EF583E493547FF50EAE17AF0D
:10038E00187C007D641202CB7E007F0ACFCDCFCECB
:10039E00CCCE1202CB74582FF58274003EF583E456
:1003AE0093F50FAE17AF180204397509FF90005878
:1003BE00E493FF547FF50A90005DE493F50B8F0CE8
:1003CE00AE19AF1A7C037DE81202CB74582FF5825A
:1003DE0074003EF583E493F50DAE19AF1A7C037DE0
:1003EE00E81202CB7E007F64CFCDCFCECCCE1202F0
:1003FE00CB74582FF58274003EF583E493547FF549
:10040E000EAE19AF1A7C007D641202CB7E007F0AFD
:10041E00CFCDCFCECCCE1202CB74582FF582740036
:10042E003EF583E493F50FAE19AF1A7C007D0A12E8
:10043E0002CB74582DF58274003CF583E493F510CD
:01044E00228B
:1005E60012032EE5A0540F44E0F5A07580FF53A03A
:1005F6000FE5A0540F44C0F5A0AF087401A8070882
:100606008002C333D8FCF58053A00FE5A0540F44F5
:10061600E0F5A074092508F8E6F58053A00F050853
:09062600E508B40803E4F508221C
:0C068C0002150000021100000213000023
:10075000438E0475D7CD75D6D4438E1043AF042293
:10073D00438E805389F0758ACD758CD4C28DC28C51
:03074D00D2A9220C
:03000B0002000EE2
:10000E00C0E0C0D00516E51670020515C39464E570
:10001E001594004030751500751600051AE51A7016
:10002E00020519940FE5199427401A751927751AA8
:10003E000F751500751600E51913F517E51A13F56A
:0A004E0018C28CC202D0D0D0E032FC
:030063000205751E
:10057500C0E0C0F0C083C082C0D075D000C000C04C
:0D05850001C002C003C004C005C006C007CD
:100592000512E512700205110514E5147002051327
:1005A200C3E51294FDE5119400400875110075121F
:1005B20000D201C3E514949DE5139400400875131D
:0905C20000751400D2001205E6D8
:1005CB00D007D006D005D004D003D002D001D00084
:0B05DB00D0D0D082D083D0F0D0E0322E
:0807B5007F6C7E91DEFEDFFC8B
:0107BD002219
:10062F007DFFE5B0540FFF640F60341207B5E5B0DE
:10063F00540FFF640F6028EF24F9601724FC600F3C
:10064F0024FE60071470187D0180147D0280107DD8
:10065F0003800C7D048008EF640F600A1207B5E574
:08066F00B0540FFF80F1AF054C
:010677002260
:10070D007F05000000000000000000000000000058
:07071D0000AE071FEE70EBB8
:0107240022B2
:0F078E00D2A1D2A012070DC2A112070DC2A02244
:0A07AB00C2A1D2A012070DD2A122B4
:10072500EF6004C2A18002D2A112070DD2A0120768
:080735000DC2A0D2A102070DC4
:0306D7001206996F
:1006DA00D2A112070DD2A012070D30A107C2A01293
:0806EA0007ABC322C2A0D3221A
:02069900AD07AB
:10069B00E4FCED30E704D2A18002C2A112070DD217
:0E06AB00A0ED25E0FD12070DC2A00CBC08E476
:0106B900221E
:1006BA00E4FCD2A012070DED25E0FD30A1034305AD
:0C06CA0001C2A012070D0CBC08E8AF052F
:0106D6002201
:1007600012078E7F901206D77F011206D70207ABC1
:1006F20012078E7F911206991206DA1206BAAD0718
:0A070200E4FF1207251207ABAF0554
:01070C0022CA
:10006600EC4D6011E8497017ED33EC3304600DE494
:10007600FCFFFEFD22E933E8330470F80202B612F3
:10008600028158046009E4CC2481500628500902F4
:1000960002C02840030202BDC0E0EB4A7044B980AA
:1000A60006D0E0FB0202ACEF4E701CBD8008EBFFF1
:1000B600EAFEE9FD80EBE98DF0A4FEE5F002014FD2
:1000C600E9CDF9EAFEEBFFEF89F0A4FCE5F0CE8975
:1000D600F0A42EFFE435F0CD89F0A42DFEE435F032
:1000E6008067EF4E7005BD80D780C3EF8BF0A4AC60
:1000F600F0EE8BF0A42CFCE435F0F8EF8AF0A42C9B
:10010600E5F038FCE433CB8DF0A42CFCE5F03BF8AD
:10011600EE8AF0A42CFCE5F038F8E433CF89F0A49D
:100126002CFCE5F038CF3400CE89F0A42FFFE5F0A3
:100136003EFEE433C98DF0A42EFEE5F039CD8AF0FB
:10014600A42FFFE5F03EFEE43DFD33D0E0FB500773
:100156000BBB000F0202C0EC2CFCEF33FFEE33FEAC
:06016600ED33FD020298DA
:10016C000202C0EC5D046005E8590470030202B69B
:10017C00120281580460F6EC4860F2EC7004FDFE4B
:10018C00FF22C860DB2481C85009C3986002500666
:10019C000202BD9850CAF582E9294B4A7005AB8220
:1001AC000202AC75F0007C1A7880C3EF9BEE9AEDDE
:1001BC0099400DC3EF9BFFEE9AFEED99FDE842F0DE
:1001CC00DC23ACF0D0E0FFD0E0FED0E0FDAB822031
:1001DC00E7101BEB60BAEC2CFCEF33FFEE33FEEDBB
:1001EC0033FD020298E803F830E705C0F075F00023
:1001FC00EF2FFFEE33FEED33FD40B830E7C280AA9F
:10020C0075F020800E75F010800575F0087D007E6D
:10021C00007F003392D530D503120320EC3340100D
:10022C00EF33FFEE33FEED33FDEC33FCD5F0ED2276
:0E023C00E5F0247EA2D513CC92E7CDCEFF22B2
:10024A00EDD2E7CD33EC3392D524814006E4FFFEAC
:10025A00FDFC22FCE4CFCECDCC24E0501174FF800B
:10026A00EDC3CC13CCCD13CDCE13CECF13CF0470A8
:07027A00F030D5DE02032085
:10028100E9D2E7C933E833F892D5EDD2E7CD33ECC3
:0702910033FC5002B2D5223C
:10029800EC30E7100FBF000C0EBE00080DBD0004C7
:1002A8000BEB6014A2D5EB13FCED92E7FD2274FF73
:1002B800FCFDFEFF22E480F8A2D574FF13FC7D80CC
:0302C800E480EFE0
:030000000204E90E
:0C04E900787FE4F6D8FD75812002053014
:1002CB00BC000BBE0029EF8DF084FFADF022E4CC17
:1002DB00F875F008EF2FFFEE33FEEC33FCEE9DECE0
:1002EB00984005FCEE9DFE0FD5F0E9E4CEFD22ED26
:1002FB00F8F5F0EE8420D21CFEADF075F008EF2F70
:10030B00FFED33FD4007985006D5F0F222C398FD60
:05031B000FD5F0EA22FD
:0E032000C3E49FFFE49EFEE49DFDE49CFC22EE
:1004F50002044FE493A3F8E493A34003F68001F2CA
:1005050008DFF48029E493A3F85407240CC8C33307
:10051500C4540F4420C8834004F456800146F6DFD6
:10052500E4800B0102040810204080900678E47EE8
:10053500019360BCA3FF543F30E509541FFEE493CB
:10054500A360010ECF54C025E060A840B8E493A392
:10055500FAE493A3F8E493A3C8C582C8CAC583CABD
:10056500F0A3C8C582C8CAC583CADFE9DEE780BE75
:010698000061
:00000001FF
