:0A14F900C0F9A4B0999282F8809027
:03114E0001080095
:100E2D0012144BE511C4540F75F00AA4FFE51154CB
:100E3D000F2FF569E512C4540F75F00AA4FFE512E2
:100E4D00540F2FF56CE513C4540F75F00AA4FFE58C
:100E5D0013540F2FF56BE56A7038E55B75F00A8456
:100E6D009014F993F509E55B75F00A84E5F093F5B7
:100E7D000A750BC6750CFF750DFFE56F75F00A84CD
:100E8D0093F50EE56F75F00A84E5F093F50F751087
:100E9D008922E56A64017054E56B75F00A8490143B
:100EAD00F993F509E56B75F00A84E5F093F50A758C
:100EBD000BBFE56C75F00A8493F50CE56C75F00AC3
:100ECD0084E5F093F50D750EBFE56975F00A849311
:100EDD00F50FE56975F00A84E5F093F510E56920E5
:100EED00E003020F8C750BFF750EFF22E56A64029D
:100EFD006003020F8C7509FF750AFF750BFF750CEA
:100F0D00BFAE6DAF6E7C037DE812057D74F92FF5D4
:100F1D008274143EF583E493F50DAE6DAF6E7C03D4
:100F2D007DE812057D7E007F64CFCDCFCECCCE1275
:100F3D00057D74F92FF58274143EF583E493F50E57
:100F4D00AE6DAF6E7C007D6412057D7E007F0ACF95
:100F5D00CDCFCECCCE12057D74F92FF58274143E13
:100F6D00F583E493F50FAE6DAF6E7C007D0A12052F
:100F7D007D74F92DF58274143CF583E493F51022FC
:10110500120E2DE5A0540F44E0F5A07580FF53A005
:101115000FE5A0540F44C0F5A0AF087401A8070857
:101125008002C333D8FCF58053A00FE5A0540F44CB
:10113500E0F5A074092508F8E6F58053A00F050829
:09114500E508B40803E4F50822F2
:0E14D20080828486888A8C81838587898B8DB1
:09115100071155592301010101A8
:10130600C29700E4FEEF30E005D2A3008003C2A33B
:0F13160000D29700C29700EFC313FF0EBE08E688
:0113250022A5
:10134500E4FFFEEFC313FF30A3054307808003537B
:0C135500077FD29700C297000EBE08E789
:011361002269
:10137F00AE07C29300C29700D293005306FEAF068A
:0C138F00121306AF05121306C2930022D1
:10132600C29300C29700D29300430701121306121C
:0E1336001345C29300D29700D2A300C2A300B9
:011344002286
:10128000E4FCFD7F8E12137FEC9014D293FF741157
:101290002CF8E6FD12137F0CBC07ED7D807F8E02DB
:0212A000137FBA
:10144B00E4FDED9014D993FF12132674112DF8A619
:05145B00070DBD07EDC7
:011460002269
:0C115A00027B000002770000027900FF19
:10109000E5B0540FFF640F600A057CE57C7009051C
:1010A0007B8005E4F57BF57CC3E57C9410E57B94BF
:1010B000274038E4F57BF57CF577757801EF24F966
:1010C000602324FC601724FE600B14701E757900E9
:1010D000757A018016757900757A02800E7579002F
:1010E000757A038006757900757A04E5B0540FFFB0
:1010F000BF0F0FE578640145777007F577F578AF96
:041100007A227FFFD1
:0111040022C8
:101403007F05000000000000000000000000000055
:0714130000AE071FEE70EBB5
:01141A0022AF
:0F14B400D2A1D2A0121403C2A1121403C2A0220B
:10139B001212C4121268121362AD07E4FF12141B6F
:0A13AB00C2A1D2A0121403D2A122A5
:10141B00EF6004C2A18002D2A1121403D2A0121455
:08142B0003C2A0D2A1021403C8
:0B125D001212C4121268AF031212C478
:10126800D2A1121403D2A012140330A107C2A012F3
:0812780013ABC322C2A0D32274
:0212C400AD0774
:1012C600E4FCED30E704D2A18002C2A1121403D2DD
:0E12D600A0ED25E0FD121403C2A00CBC08E43C
:0112E40022E7
:10136200E4FCD2A0121403ED25E0FD30A1034305F5
:0C13720001C2A01214030CBC08E8AF0577
:01137E00224C
:0D000E00AB071214B47F9012125D0213AB09
:0A14EE001214B47F9112139BAF0596
:0114F80022D1
:081503007F6C7E91DEFEDFFC2F
:01150B0022BD
:1013B500AB05AA071214B47FA01212C4121268AFAB
:0A13C5000212125D1213AB021503B1
:02143300AB0705
:101435001214B47FA012125D1214B47FA112139B73
:05144500121503AF05C4
:01144A00227F
:1012E500414141535353007B25642D256425257DBC
:1012F5007B25642D25642D25647D7B25647D0D0A64
:0113050000E7
:10116600016A0002660000026D0000C10DC10AC1DD
:0511760009C10BC10CD2
:100C2000E4F53CF53D7FFF1214E01214C3E4F52215
:100C3000AF22121433E52225E0245CF8760008A6E2
:100C4000070522E522C3940540E612128012148C97
:100C50001214771214A1121090EFF46018EF24FD13
:100C60006007147010B20A800C056AE56AC3940329
:100C70004003E4F56A300D797F0112000E1214EE84
:100C8000AC07E41201D67B027A2B79C7783E1200BA
:100C90002612020A8F6F7F0312000E1214EEAC07A9
:100CA000E41201D6E4FBFA79C87842120026E4FB8C
:100CB000FA797F784312012F12020A8F5A12118B90
:100CC0008F5BE568200A0854FD4401F568800654EE
:100CD000FE4402F568E55AC3943C5007436804D2C9
:100CE0000980055368FBC209E568F4FF1214E0C2ED
:100CF0000D200B03020DDA200A6678707C007D005F
:100D00007BFF7A1279E5120794EF703F7541FF750A
:100D100042127543ECF544855B45F546856F47F512
:100D200048856B49F54A856C4BF54C85694DA209A0
:100D300033754E00F54F7B007A00792312080D7B46
:100D4000007A007923121461020DD8E4F51EF52211
:100D500074702522F8E4F60522E522B406F28078C4
:100D6000300A7578707C007D007BFF7A1279E5127D
:100D70000794EF70507541FF7542127543ECF544CE
:100D8000855B45F546856F47F548856B49F54A858E
:100D90006C4BF54C85694DE53D25E0245CF8E6F5A6
:100DA0004E08E6F54F7B007A00792312080D7B0090
:100DB0007A007923121461053DE53DC3940540187E
:100DC000E4F53D8013E4F51EF52274702522F8E465
:100DD000F60522E522B406F2C20B200A03020C56E5
:100DE00030090A200C07D28ED20C020C56300903AF
:100DF000020C56200C03020C56C28EC20CE53C2598
:100E0000E0245CF8A66608A66785666D85676EE4D3
:100E1000F566F567AD6EAF3C1213B5053CE53CC316
:0D0E200094055003020C56E4F53C020C56FC
:0E14E000E5A0540F4480F5A08F8053A00F228A
:0F14C300E5A0540F44A0F5A0E4F58053A00F223C
:0413CF007F057E0018
:1013D300EF1FAA0670011E4A600BE4FDEDC3940CD7
:0513E30050EE0D80F743
:0113E80022E2
:1011E900C200D2947F0C7E001213D3C2947F507E2A
:1011F900001213D3D2947F0A7E001213D3A29492C1
:06120900001213CFA20049
:01120F0022BC
:0212A200A9079A
:1012A400E4FBC294E9139294C28C1213CFD28CD271
:1012B40094E9C313F90BBB08E97F057E000213D33D
:1013E900E4FBC294ECC313FCD2943094034304800D
:0913F9001213CF0BBB08EBAF048B
:0114020022C7
:10118B001211E97FCC1212A27F441212A27FC87EE9
:10119B00001213D31211E97FCC1212A27FBE1212CE
:1011AB00A21213E9A9071213E9EF75F010A4FFE9D6
:0511BB00C4540F4207BF
:0111C000220C
:0F117B0002180000011E00021A0000021C0000F2
:10147700438E805389F0758ACD758CD4C28DD28CFA
:05148700D2A9D2AF2242
:10148C00759850438E04E4F5D775D6F7438E014317
:05149C008E10D2AC220D
:1014A100438E4053890F758BCD758DD4C28FC28EFB
:0314B100D2AB2299
:03001B000211C10E
:0411C100C0E0C0D0FA
:1011C5000519E51970020518C394E7E5189403405D
:0F11D5000E7518007519000567E567700205664D
:0511E400D0D0D0E03284
:030023000212378F
:10123700C0E0C0D075D000C000309813C298747059
:10124700251EF8A699051EE51EB40603751E00D0D7
:0612570000D0D0D0E0320F
:101461001205256010F5993099FDC299740129F989
:05147100E43AFA80EBF3
:011476002253
:03000B00021019C7
:10101900C0E0C0F0C083C082C0D075D000C000C09D
:0D10290001C002C003C004C005C006C0071E
:10103600200D08051BE51B7002051A200B08051D6F
:10104600E51D7002051CC3E51B94AFE51A9401402B
:1010560008751A00751B00D20DC3E51D94E6E51C44
:0F10660094034008751C00751D00D20B12110574
:10107500D007D006D005D004D003D002D001D000CF
:0B108500D0D0D082D083D0F0D0E03279
:10002600EC4D6011E8497017ED33EC3304600DE4D4
:10003600FCFFFEFD22E933E8330470F80202761273
:10004600024158046009E4CC248150062850090274
:10005600028028400302027DC0E0EB4A7044B9806A
:1000660006D0E0FB02026CEF4E701CBD8008EBFF71
:10007600EAFEE9FD80EBE98DF0A4FEE5F002010F52
:10008600E9CDF9EAFEEBFFEF89F0A4FCE5F0CE89B5
:10009600F0A42EFFE435F0CD89F0A42DFEE435F072
:1000A6008067EF4E7005BD80D780C3EF8BF0A4ACA0
:1000B600F0EE8BF0A42CFCE435F0F8EF8AF0A42CDB
:1000C600E5F038FCE433CB8DF0A42CFCE5F03BF8EE
:1000D600EE8AF0A42CFCE5F038F8E433CF89F0A4DE
:1000E6002CFCE5F038CF3400CE89F0A42FFFE5F0E4
:1000F6003EFEE433C98DF0A42EFEE5F039CD8AF03C
:10010600A42FFFE5F03EFEE43DFD33D0E0FB5007B3
:100116000BBB000F020280EC2CFCEF33FFEE33FE2C
:06012600ED33FD0202585A
:10012C00020280EC5D046005E8590470030202765B
:10013C00120241580460F6EC4860F2EC7004FDFECB
:10014C00FF22C860DB2481C85009C39860025006A6
:10015C0002027D9850CAF582E9294B4A7005AB82A0
:10016C0002026C75F0007C1A7880C3EF9BEE9AED5E
:10017C0099400DC3EF9BFFEE9AFEED99FDE842F01E
:10018C00DC23ACF0D0E0FFD0E0FED0E0FDAB822071
:10019C00E7101BEB60BAEC2CFCEF33FFEE33FEEDFB
:1001AC0033FD020258E803F830E705C0F075F000A3
:1001BC00EF2FFFEE33FEED33FD40B830E7C280AADF
:1001CC0075F020800E75F010800575F0087D007EAE
:1001DC00007F003392D530D5031205D2EC3340109A
:1001EC00EF33FFEE33FEED33FDEC33FCD5F0ED22B7
:0E01FC00E5F0247EA2D513CC92E7CDCEFF22F3
:10020A00EDD2E7CD33EC3392D524814006E4FFFEEC
:10021A00FDFC22FCE4CFCECDCC24E0501174FF804B
:10022A00EDC3CC13CCCD13CDCE13CECF13CF0470E8
:07023A00F030D5DE0205D211
:1007B100E5552441F8E6055522783E300702784197
:1007C100E475F0011205E00205252000EB7F2ED231
:1007D100008018EF540F2490D43440D4FF30040B20
:1007E100EF24BFB41A0050032461FFE556600215DF
:1007F100560559E5597002055830070D783EE475E4
:10080100F0011205E0EF02056B0212107403D2072A
:100811008003E4C207F5558B3E8A3F8940E4F556D3
:10082100F558F559E55660077F201207EC80F575FC
:1008310057FFC201C200C202C203C205C206C208FA
:100841001207BAFF700D3007057F001207FDAF597F
:10085100AE5822B4255FC2D5C2041207BAFF24D014
:10086100B40A00501A75F00A785630D50508B6FF5B
:100871000106C6A426F620D5047002D20380D9242D
:10088100CFB41A00EF5004C2E5D204020AEAD20141
:1008910080C6D20080C0D20280BCD2D580BAD20537
:1008A10080B47F201207EC2002077401B556004086
:1008B100F11207B1FF1207EC020825D208D2068017
:1008C100951207B1FB1207B1FA1207B1F94A4B7041
:1008D1000679E17A0B7BFF20022EE556602A7E0025
:1008E1008E8275830012053E60060EEE655770F02C
:1008F100C2D5EBC0E0EAC0E0E9C0E0EE120B4AD09D
:10090100E0F9D0E0FAD0E0FB120525FF60AAEBC0C8
:10091100E0EAC0E0E9C0E01207ECD0E02401F9D040
:10092100E03400FAD0E0FBE5570460DCD557D9800C
:1009310087D20280A2120B2D60F7E55770010412D5
:10094100028BA957600DE557600914F557120BD4B6
:10095100EF60F3EA30E702F404C3995077EAF42533
:10096100570430E701E404F557800D120B2D60C1E7
:10097100EA0557255712028BEA7854F630E701E46D
:10098100255704D5570420050114120B4AE4C0E091
:10099100120BD47854E6601320E70714F61207D43B
:1009A100802204F6D0E014C0E07F001207D4E5579E
:1009B10060071207CB1557800B3005031207CBD008
:1009C100E0020825D0E00480C5120B2D60A0E55798
:1009D1000412028B7854EAF6E557200502600104FF
:0509E1002404120B4A82
:1009E60074FF04C0E0120BD41207D4E557200502A9
:1009F60060031207CBD0E0B557E87F451207DE78D3
:100A060054E67F2B30E7047F2DF404C0E01207EC98
:100A1600D0E075F00A84C0F01207D5D0E01207D5F1
:100A2600020825791080027908C206C2088008D219
:100A3600D5790A8004790AC2D5E557047002F557BC
:100A4600E4FAFDFEFF1207B1FC7B08200113120732
:100A5600B1FD7B1030000A1207B1FE1207B1FF7B11
:100A660020EC3382D592D55013C3E43000069FFFA5
:100A7600E49EFEE42001039DFDE49CFCE4CBF8C269
:100A860001EC700CCFCECDCCE824F8F870F38017CB
:100A9600C3EF33FFEE33FEED33FDEC33FCEB33FBFC
:100AA600994002FB0FD8E9EB300105F8D0E0C448C5
:100AB600B201C0E00AEC4D4E4F78207B0070C2EACE
:100AC600B5570040BCC0E0120B4CD0F0D0E020017E
:100AD60004C4C0E0C4B201C0F01207D5D0F0D5F00E
:100AE600EB0208251205F008C2530A295808934C50
:100AF600088F420A2D4F0A35440A354908A8430A89
:100B06003B55096C4609CA450936470C01500897FA
:100B16002D089B2E08BE2B089F2308BC200BEA2A13
:100B2600085748000008B6E557B4FF037557061284
:100B360007B1FC1207B1FD1207B1FE1207B1FF782B
:100B46004D0202BA790AA2D5200314300509B9105C
:100B5600020404B9080104A2D520060250010420AB
:100B660002689202B556005034C0E07F2030031967
:100B76007F30A20272067205500F120BA3C202C288
:100B860006C205C2087F30800F300503E9C0E012B7
:100B960007EC300503D0E0F9D0E0B556CC300517A8
:100BA6007F30B9100C1207EC7F583004077F78802D
:100BB60003B908031207EC3002057F2D0207EC7F0C
:100BC600202008F87F2B2006F322920280CF7F0098
:100BD600B407005005244DF8E6FF22286E756C6CAC
:100BE6002900D2011207B13001F8C201785630D57A
:100BF6000108F60208572D504349581207B124033D
:100C0600B405004001E4900BFC931207DD743A1220
:0A0C160007DDD203755604020A2917
:10024100E9D2E7C933E833F892D5EDD2E7CD33EC03
:0702510033FC5002B2D5227C
:10025800EC30E7100FBF000C0EBE00080DBD000407
:100268000BEB6014A2D5EB13FCED92E7FD2274FFB3
:10027800FCFDFEFF22E480F8A2D574FF13FC7D800C
:03028800E480EF20
:10028B00F920E72824F950037907E4F42402FB183A
:10029B00DBFDE624FB5014E9600DE4F618E604F6EA
:0F02AB00B40A08E4F6D9F57401F60A22C2D52286
:1002BA00ED33EC3392D5FA602AB4FF33EDC2E77B13
:1002CA00FF60067A0279DFE4227A0279E820D5040F
:1002DA007A0279E3224E614E002B494E46002D499F
:1002EA004E4600E47A08F608DAFC7B00740722E836
:1002FA00C0E0ECC0E0EDC0E0EEC0E0EFC0E0EA75BF
:10030A00F010A4CAABF075F04DA42BFBE435F0FC59
:10031A00EA2410FAEB34C5FBEC34D9FCEDC2E7FF52
:10032A0075F056A4F42411C5F0F434C58FF0A42A4C
:10033A00E5F03BE43CF620E7141204E5D0E0FFD0F8
:10034A00E0FED0E0FDD0E0FC12012F8014F404128C
:10035A0004E5D0E0FFD0E0FED0E0FDD0E0FC1200E2
:10036A0026D0E0F8E6FAEDD2E7CD33EC332482FB6F
:10037A00E4C3CF33CFCE33CECD33CD33DBF37B07DC
:10038A0075F00A846004F6081B0AE5F0F6088FF097
:10039A00740AA4FFACF08EF0740AA42CFEACF050E0
:1003AA00010C8DF0740AA42CFDE435F0F608DBDEAE
:0303BA00740722A3
:1003BD00020276E86480F8E933E83360110460F0F6
:1003CD00ED33EC337009E8FCE9FDEAFEEBFF2204A6
:1003DD0060DED3EB9FEA9EE99DE8C2E78CF0C2F7A1
:1003ED0095F0400CE8CCF8E9CDF9EACEFAEBCFFB6D
:1003FD0012024185D0F05804700320D5B3E8047083
:10040D00075002B2D502028092D5EC0460F7E4CC1D
:10041D00C0E0C398F8603B94186008400DD0E0FB35
:10042D00020258E4FBFAC9FC8028E830E406E4C96E
:10043D00FBE4CAFCE830E305E4C9CACBFCE8540789
:10044D006010F8C3E913F9EA13FAEB13FBEC13FC94
:10045D00D8F130F52FC3E49CFCEF9BFFEE9AFEED37
:10046D0099FDD0E0FBEF4E4D4C701222DB030202E2
:10047D007DEC2CFCEF33FFEE33FEED33FDED30E77D
:10048D00EB020258EF2BFFEE3AFEED39FDD0E0FB0B
:10049D0050130BBB0003020280ED13FDEE13FEEFB4
:0804AD0013FFEC13FC020258DE
:1004B5003F8000004120000042C80000447A00004F
:1004C500461C400047C35000497424004B189680D1
:1004D5004CBEBC205A0E1BCA6753C21C749DC5AEC8
:1004E500FB60065407601C2323120513EB54386088
:1004F500091204FF12050E120026ECF8EDF9EEFACA
:10050500EFCB22EB12050E80F1543803241C900426
:10051500B5FE93FC0EEE93FD0EEE930ECE93FF22E9
:03000000020F8D5F
:0C0F8D00787FE4F6D8FD75817C020FD45B
:10052500BB010689828A83E0225002E722BBFE02D4
:09053500E32289828A83E4932207
:10053E00BB010CE58229F582E5833AF583E0225072
:10054E0006E92582F8E622BBFE06E92582F8E222BC
:0D055E00E58229F582E5833AF583E49322D6
:10056B00BB010689828A83F0225002F722BBFE016F
:02057B00F32269
:10057D00BC000BBE0029EF8DF084FFADF022E4CC62
:10058D00F875F008EF2FFFEE33FEEC33FCEE9DEC2B
:10059D00984005FCEE9DFE0FD5F0E9E4CEFD22ED71
:1005AD00F8F5F0EE8420D21CFEADF075F008EF2FBB
:1005BD00FFED33FD4007985006D5F0F222C398FDAC
:0505CD000FD5F0EA2249
:0E05D200C3E49FFFE49EFEE49DFDE49CFC223A
:1005E000FAE6FB0808E6F925F0F618E6CA3AF6221C
:1005F000D083D082F8E4937012740193700DA3A39A
:1006000093F8740193F5828883E4737402936860AD
:06061000EFA3A3A380DFAD
:10121000EFB40A07740D12121B740A309811A899C2
:10122000B8130CC2983098FDA899C298B811F6303E
:0712300099FDC299F5992216
:10061600E3F5F009E208B5F06D606B80F3E3F5F001
:1006260009E608B5F060605E80F387F009E608B574
:10063600F054605280F487F009E208B5F04860464D
:1006460080F488828C8387F009E0A3B5F0386036A1
:1006560080F488828C8387F009E493A3B5F0276041
:100666002580F388828C83E3F5F009E0A3B5F016C4
:10067600601480F388828C83E3F5F009E493A3B5D4
:10068600F004600280F2020741808580E7808E8058
:10069600D2803C8015806C807E809B80B5808B806C
:1006A600A1804F8070803A02074D89828A83ECFAD6
:1006B600E493F5F0A3C8C582C8CCC583CCE493A364
:1006C600C8C582C8CCC583CCB5F070606E80E189A0
:1006D600828A83E493F5F0A3E208B5F05E605C805D
:1006E600F289828A83E0F5F0A3E608B5F04D604B07
:1006F60080F389828A83E0F5F0A3E208B5F03C60D6
:100706003A80F389828A83E493F5F0A3E608B5F08C
:100716002A602880F2805389828A83ECFAE493F572
:10072600F0A3C8C582C8CCC583CCE0A3C8C582C81F
:10073600CCC583CCB5F004600280E27FFFB5F00241
:100746000F2240027F012289828A83ECFAE0F5F0CB
:10075600A3C8C582C8CCC583CCE0A3C8C582C8CC13
:10076600C583CCB5F0D560D380E389828A83ECFA61
:10077600E0F5F0A3C8C582C8CCC583CCE493A3C872
:10078600C582C8CCC583CCB5F0B160AF80E288F035
:10079600ED2402B4040050A3F582EB2402B4040055
:0B07A6005099232345822390068F7397
:100F9900020C20E493A3F8E493A34003F68001F242
:100FA90008DFF48029E493A3F85407240CC8C33359
:100FB900C4540F4420C8834004F456800146F6DF28
:100FC900E4800B010204081020408090114EE47E59
:100FD900019360BCA3FF543F30E509541FFEE4931D
:100FE900A360010ECF54C025E060A840B8E493A3E4
:100FF900FAE493A3F8E493A3C8C582C8CAC583CA0F
:10100900F0A3C8C582C8CAC583CADFE9DEE780BEC6
:01118A000064
:00000001FF
