:10065200011A01011900021B003CC100C102C101C3
:100472007FFF12070D1206FE1206EE1206DB1206AF
:10048200C8D2AF1205B4EFF46031EF14602B1460E0
:1004920021146011147024051AE51AC39404401B38
:1004A200751A018016743C251CF51CE4351BF51BDE
:1004B2008009E4F51BF51C8002B202300028C2005C
:1004C200E51C451B601BE51AB401047FFE8014E5A0
:1004D2001AB402047FFD800BE51AB403097FFB8086
:1004E200027FFF12070D30019AC2013002951200FD
:0804F2001E1201AA8F19808B74
:0E070D00E5A0540F4480F5A08F8053A00F226A
:0F06FE00E5A0540F44A0F5A0E4F58053A00F220F
:0A000E00C0F9A4B0999282F8809026
:030662000108008C
:10028E003002030203247509BFE51A90000E93F5A0
:10029E000A750BBF750CFFAE1BAF1C7C037DE812FD
:1002AE00022B740E2FF58274003EF583E493F50D48
:1002BE00AE1BAF1C7C037DE812022B7E007F64CF49
:1002CE00CDCFCECCCE12022B740E2FF58274003E03
:1002DE00F583E493F50EAE1BAF1C7C007D64120219
:1002EE002B7E007F0ACFCDCFCECCCE12022B740E3A
:1002FE002FF58274003EF583E493F50FAE1BAF1C11
:10030E007C007D0A12022B740E2DF58274003CF5D2
:10031E0083E493F510227509BF900012E493F50A59
:10032E00750BBF750CFF750DFFE51975F00A8490FE
:10033E00000E93F50EE51975F00A84E5F093F50FAE
:04034E007510C6223E
:10056B0012028EE5A0540F44E0F5A07580FF53A056
:10057B000FE5A0540F44C0F5A0AF087401A80708FD
:10058B008002C333D8FCF58053A00FE5A0540F4471
:10059B00E0F5A074092508F8E6F58053A00F0508CF
:0905AB00E508B40803E4F5082298
:10066500021100000213000002150000021700002D
:1006EE00438E0475D7CD75D6D4438E1043AF0422F6
:1006C800438E805389F0758ACD758CD4C28DD28CB7
:0306D800D2A92282
:1006DB00438E4053890F758B23758DFFC28FD28E3E
:0306EB00D2AB226D
:03001B000203528B
:04035200C0E0C0D077
:10035600D3E51C9400E51B940040780512E5127065
:10036600020511E51AB4011EC3E5129409E51194BC
:10037600005004D2B48064C3E512942FE5119400B2
:100386005047C2B48055E51AB40220C3E512940E54
:10039600E51194005004D2B48041C3E512942FE5D0
:1003A6001194005004C2B48032801EC3E512942119
:1003B600E51194005004D2B48021C3E512942FE5D0
:1003C6001194005004C2B48012751100751200D247
:0B03D600B48008751100751200C2B45D
:0503E100D0D0D0E03295
:03000B000205FDEE
:0405FD00C0E0C0D0CA
:100601000514E51470020513C394E7E51394034040
:1006110014751300751400E51C451B6008E51C15D5
:050621001C7002151B16
:05062600D0D0D0E0324D
:030063000204FA9A
:1004FA00C0E0C0F0C083C082C0D075D000C000C0C8
:0D050A0001C002C003C004C005C006C00748
:100517000516E516700205150518E518700205178A
:10052700C3E51694C8E515940040087515007516BF
:1005370000D200C3E5189419E5179402400875170F
:0905470000751800D20112056BC9
:10055000D007D006D005D004D003D002D001D000FF
:0B056000D0D0D082D083D0F0D0E032A9
:08071B007F6C7E91DEFEDFFC25
:0107230022B3
:1005B4007DFFE5B0540FFF640F603412071BE5B0F4
:1005C400540FFF640F6028EF24F9601724FC600FB8
:1005D40024FE60071470187D0180147D0280107D54
:1005E40003800C7D048008EF640F600A12071BE58A
:0805F400B0540FFF80F1AF05C8
:0105FC0022DC
:040694007F057E0060
:10069800EF1FAA0670011E4A600BE4FDEDC3940C1F
:0506A80050EE0D80F78B
:0106AD00222A
:10062B00C203D2947F0C7E00120698C2947F507E38
:10063B0000120698D2947F0A7E00120698A294921A
:06064B0003120694A20355
:010651002286
:02067600A907D2
:10067800E4FBC294E9139294120694D294E9C3134A
:0C068800F90BBB08ED7F057E0002069810
:1006AE00E4FBC294ECC313FCD29430940343048055
:0906BE001206940BBB08EBAF041B
:0106C7002210
:10001E0012062B7FCC1206767F441206767F907ED8
:10002E000112069812062B7FCC1206767FBE1206A0
:10003E00761206AEA9071206AEEF540FFEE9FFFDCB
:10004E00AC06E4120171E4FBFA7980783D12006689
:01005E00227F
:10006600EC4D6011E8497017ED33EC3304600DE494
:10007600FCFFFEFD22E933E8330470F80202161293
:1000860001E158046009E4CC248150062850090295
:10009600022028400302021DC0E0EB4A7044B980EA
:1000A60006D0E0FB02020CEF4E701CBD8008EBFF91
:1000B600EAFEE9FD80EBE98DF0A4FEE5F002014FD2
:1000C600E9CDF9EAFEEBFFEF89F0A4FCE5F0CE8975
:1000D600F0A42EFFE435F0CD89F0A42DFEE435F032
:1000E6008067EF4E7005BD80D780C3EF8BF0A4AC60
:1000F600F0EE8BF0A42CFCE435F0F8EF8AF0A42C9B
:10010600E5F038FCE433CB8DF0A42CFCE5F03BF8AD
:10011600EE8AF0A42CFCE5F038F8E433CF89F0A49D
:100126002CFCE5F038CF3400CE89F0A42FFFE5F0A3
:100136003EFEE433C98DF0A42EFEE5F039CD8AF0FB
:10014600A42FFFE5F03EFEE43DFD33D0E0FB500773
:100156000BBB000F020220EC2CFCEF33FFEE33FE4C
:06016600ED33FD0201F87B
:10016C0075F020800E75F010800575F0087D007E0E
:10017C00007F003392D530D503120280EC3340104F
:10018C00EF33FFEE33FEED33FDEC33FCD5F0ED2217
:0E019C00E5F0247EA2D513CC92E7CDCEFF2253
:1001AA00EDD2E7CD33EC3392D524814006E4FFFE4D
:1001BA00FDFC22FCE4CFCECDCC24E0501174FF80AC
:1001CA00EDC3CC13CCCD13CDCE13CECF13CF047049
:0701DA00F030D5DE020280C7
:1001E100E9D2E7C933E833F892D5EDD2E7CD33EC64
:0701F10033FC5002B2D522DD
:1001F800EC30E7100FBF000C0EBE00080DBD000468
:100208000BEB6014A2D5EB13FCED92E7FD2274FF13
:10021800FCFDFEFF22E480F8A2D574FF13FC7D806C
:03022800E480EF80
:030000000203E612
:0C03E600787FE4F6D8FD75812002042D1C
:10022B00BC000BBE0029EF8DF084FFADF022E4CCB7
:10023B00F875F008EF2FFFEE33FEEC33FCEE9DEC80
:10024B00984005FCEE9DFE0FD5F0E9E4CEFD22EDC6
:10025B00F8F5F0EE8420D21CFEADF075F008EF2F10
:10026B00FFED33FD4007985006D5F0F222C398FD01
:05027B000FD5F0EA229E
:0E028000C3E49FFFE49EFEE49DFDE49CFC228F
:1003F200020472E493A3F8E493A34003F68001F2AB
:1004020008DFF48029E493A3F85407240CC8C3330B
:10041200C4540F4420C8834004F456800146F6DFDA
:10042200E4800B0102040810204080900652E47E12
:10043200019360BCA3FF543F30E509541FFEE493CF
:10044200A360010ECF54C025E060A840B8E493A396
:10045200FAE493A3F8E493A3C8C582C8CAC583CAC1
:10046200F0A3C8C582C8CAC583CADFE9DEE780BE79
:010675000084
:00000001FF
