:0A005700C0F9A4B0999282F88090DD
:030D42000121008C
:10006600120F22E52AC4540F75F00AA4FFE52A549C
:100076000F2FF510E52BC4540F75F00AA4FFE52BDE
:10008600540F2FF517E52CC4540F75F00AA4FFE59D
:100096002C540F2FF515E50E7069E51575F00A84D9
:1000A60090005793F522E51575F00A84E5F093F56F
:1000B600237524BFE51775F00A8493F525E51775B2
:1000C600F00A84E5F093F5267527BFE51075F00A6A
:1000D6008493F528E51075F00A84E5F093F529E593
:1000E6001020E00302048DE50A700302048D75F00A
:1000F60003A4241FF876FFE50A75F003A42420F86C
:1001060076FF22E50E6401600302019C7522BF9012
:10011600005893F5237524BF7525FFAE18AF197CDB
:10012600037DE81206F374572FF58274003EF583BB
:10013600E493F526AE18AF197C037DE81206F37E2C
:10014600007F64CFCDCFCECCCE1206F374572FF5F9
:100156008274003EF583E493F527AE18AF197C0050
:100166007D641206F37E007F0ACFCDCFCECCCE12B1
:1001760006F374572FF58274003EF583E493F52851
:10018600AE18AF197C007D0A1206F374572DF5825E
:1001960074003C020419E50E640260030202CFAE4D
:1001A60008AF097C037DE81206F374572FF58274B5
:1001B600003EF583E493F522AE08AF097C037DE8A3
:1001C6001206F37E007F64CFCDCFCECCCE1206F3DF
:1001D60074572FF58274003EF583E493F523AE0839
:1001E600AF097C007D641206F37E007F0ACFCDCF77
:1001F600CECCCE1206F374572FF58274003EF583EB
:10020600E493F524AE08AF097C007D0A1206F37468
:10021600572DF58274003CF583E493F525AE0BAFBC
:100226000C7C037DE81206F374572FF58274003EAA
:10023600F583E493F526AE0BAF0C7C037DE812063E
:10024600F37E007F64CFCDCFCECCCE1206F37457AB
:100256002FF58274003EF583E493F527AE0BAF0CC1
:100266007C007D641206F37E007F0ACFCDCFCECC14
:10027600CE1206F374572FF58274003EF583E4938D
:10028600F528AE0BAF0C7C007D0A1206F374572DD1
:10029600F58274003CF583E493F529E51020E0032C
:1002A60002048DE50A24FE601304600302048D75C2
:1002B60022FF7523FF7524FF7525FF227526FF751E
:1002C60027FF7528FF7529FF22E50E6403600302E8
:1002D600041E7522BF90005993F5237524BF75251A
:1002E600FFE50A600302037F7BE87A03F9F8AF149F
:1002F600AE13AD12AC1112078474572FF582740039
:100306003EF583E493F526E47BE87A03F9F8AF1427
:10031600AE13AD12AC11120784AC00AD01AE02AF44
:1003260003E47B64FAF9F812078474572FF5827494
:10033600003EF583E493F527E47B64FAF9F8AF14FD
:10034600AE13AD12AC11120784AC00AD01AE02AF14
:1003560003E47B0AFAF9F812078474572FF58274BE
:10036600003EF583E493F528E47B0AFAF9F8AF1426
:10037600AE13AD12AC1102040EE47BE87A03F9F871
:10038600AF1DAE1CAD1BAC1A12078474572FF58235
:1003960074003EF583E493F526E47BE87A03F9F8E6
:1003A600AF1DAE1CAD1BAC1A120784AC00AD01AE7E
:1003B60002AF03E47B64FAF9F812078474572FF549
:1003C6008274003EF583E493F527E47B64FAF9F83A
:1003D600AF1DAE1CAD1BAC1A120784AC00AD01AE4E
:1003E60002AF03E47B0AFAF9F812078474572FF573
:1003F6008274003EF583E493F528E47B0AFAF9F863
:10040600AF1DAE1CAD1BAC1A12078474572BF582B8
:1004160074003AF583E4806CE50E6404701E752260
:10042600FF7523FF7524FF7525FF7526FF7527FFCA
:1004360090005793F528A200E4338048E50E640542
:100446007045E50F75F00A8490005793F522E50F85
:1004560075F00A84E5F093F5237524BFE51675F06B
:100466000A8493F525E51675F00A84E5F093F526DA
:100476007527BFE50D75F00A8493F528E50D75F02F
:080486000A84E5F093F5292238
:10000E00120066E5A0541F44E0F5A07580FF53A0D2
:10001E001FE5A0541F44C0F5A0AF217401A8070826
:10002E008002C333D8FCF58053A01FE5A0541F44B3
:10003E00E0F5A074222521F8E6F58053A01F0521D6
:09004E00E521B40803E4F52122C8
:0E0FA20080828486888A8C81838587898B8DE6
:090D4500072A555923010101019F
:100E3300C29700E4FEEF30E004D2A38002C2A3D243
:0D0E43009700C29700EFC313FF0EBE08E832
:010E5000227F
:100E5100E4FFFEEFC313FF30A30543078080035374
:0C0E6100077FD29700C297000EBE08E782
:010E6D002262
:100E8B00AE07C29300C29700D293005306FEAF0683
:0B0E9B00120E33AF05120E33C293227B
:100E1400C29300C29700D29300430701120E33120B
:0E0E24000E51C29300D29700D2A300C2A300C9
:010E3200229D
:100DAD00E4FD7F8E120E8BE4FCEC900FA293FF748A
:100DBD002A2CF8E6FD120E8B0CBC07ED7D807F8E84
:030DCD00020E8B88
:100F2200E4FDED900FA993FF120E14742A2DF8A67A
:050F3200070DBD07EDF5
:010F37002297
:100D4E00010E00010A00020807D0020B03E804118D
:100D5E0000000000041A00000000C103C102C1011E
:10082400120F75120F38120F84120DAD120D848E33
:10083400188F19E4FF120F0A7508008F097F01123F
:100844000F0AEFFDE509F508EDF5097F02120F0A1D
:10085400750B008F0C7F03120F0AEFFDE50CF50BEF
:10086400EDF50C7F04120F0AEF24FF92007F0512AE
:100874000F0A8F0F7F06120F0A8F167F07120F0AB7
:100884008F0D120F4E120F63120C20EFF47003023F
:100894000ADEEF14607C24FD7003020AA0147003C6
:1008A4000209B224FD7003020AC9147003020ACEBD
:1008B40024FD600F240C6003020ADEE4F50EF50A41
:1008C400020ADEE50E700E050AE50AD3940350030E
:1008D400020ADE801FE50EB40109750A01750E02D5
:1008E400020ADEE50EB40212050AE50AD3940250A8
:1008F40003020ADE750A01020ADEE50E64036003E0
:10090400020ADEE50A70047F0180027F008F0A027A
:100914000ADEE50A7003020ADEE50E703DE50A24EC
:10092400FE601914602524026003020ADE0515E541
:1009340015C394184003E4F5150209D90517E51702
:10094400C3943C4003E4F517020A040510E510C300
:10095400943C4003E4F510020A2FE50E64026003A0
:10096400020ADEE50AB4012374F42509F5097401C9
:100974003508F508D3E5099488E508941350030273
:100984000ADE750813750988020ADE74F4250CF56D
:100994000C7401350BF50BC3E50C9509E50B9508B3
:1009A4005003020ADE85080B85090C020ADEE50AFB
:1009B4007003020ADEE50E6003020A5CE50A24FE07
:1009C400603514605D24026003020ADEE5157003DD
:1009D4007515181515E51575F00A84C454F0FFE56E
:1009E4001575F00A84EF25F0F52CE4FD7F8E120EC8
:1009F4008BAD2C7F848054E517700375173C151755
:100A0400E51775F00A84C454F0FFE51775F00A84FD
:100A1400EF25F0F52BE4FD7F8E120E8BAD2B7F823C
:100A24008029E510700375103C1510E51075F00A67
:100A340084C454F0FFE51075F00A84EF25F0F52A1C
:100A4400E4FD7F8E120E8BAD2A7F80120E8B7D808B
:100A54007F8E120E8B020ADEE50E6402707CE50ABC
:100A6400B4011F740C2509F50974FE3508F508D383
:100A7400E509950CE508950B5060850B08850C0974
:100A84008058E50C450B7006750B01750CF4740C5D
:100A9400250CF50C74FE350BF50B803E750E01E547
:100AA4000A6034E508FDE4FF120EC0E509FD7F018C
:100AB400120EC0E50BFD7F02120EC0E50CFD7F0394
:100AC400120EC08012750E03800DE50EB404057578
:100AD4000E058003750E04E4F50A20030302088C56
:100AE400120D848E188F19C3E5199509E518950818
:100AF4004014200211D20085150F85171685100D9C
:100B0400C201D202801DD3E519950CE518950B504E
:100B14003120012EC20085150F85171685100DC2D0
:100B240002D201A200E433FD7F04120EC0AD0F7F98
:100B340005120EC0AD167F06120EC0AD0D7F071252
:070B44000EC0C20302088C81
:0F0F7500E5A0541F4480F5A07580FF53A01F22F4
:0F0F8400E5A0541F44A0F5A0E4F58053A01F2260
:0C0D6E00023500000231000002330000DA
:100F6300438E0475D7CD75D6D4438E1043AF04D2C8
:020F7300AF22AB
:100F4E00538EBF5389F0438905E4F58AF58CC28D23
:050F5E00C28CD2A922A3
:03000B00020FB031
:0D0FB000C0E00536E53670020535D0E032B0
:03006300020B4B42
:100B4B00C0E0C0F0C083C082C0D075D000C000C070
:0D0B5B0001C002C003C004C005C006C007F1
:100B680020031B0532E53270020531C39496E53146
:100B780094004012753100753200D2038008753137
:100B880000753200C2030534E53470020533C3949E
:100B9800DEE53394034063C28CAF8CEF7D00FCE547
:100BA80036AE357810C333CE33CED8F9FFEE4CFECF
:100BB800EF4DFFAD8AEF4DFFE48F148E13F512F55C
:100BC80011AD12AC11120634A804A905AA06AB0788
:100BD8007F007E247D747C491205971206728F1D52
:100BE8008E1C8D1B8C1A753500753600758C00753A
:0D0BF8008A00753300753400D28C12000E97
:100C0500D007D006D005D004D003D002D001D00043
:0B0C1500D0D0D082D083D0F0D0E032ED
:090D7A0002380000C1040137FF3A
:100C200075B0F0D2C2D2C4E5B0B4F00630C2032031
:100C3000C40A0539E539700905388005E4F538F549
:100C400039C3E53994E8E5389403404DE4F538F5C7
:100C500039D20420C4027E0120C2027E02E5B02007
:100C6000E5027E03E5B020E4027E0475B00FC2C247
:100C7000C2C4E5B020E004EE14F537E5B020E1058C
:100C8000EE2403F537E5B020E205EE2407F537E55D
:100C9000B020E305EE240BF53775B0F0D2C2D2C414
:100CA000E5B0B4F00E30C20B30C408300405C20405
:050CB000AF37227FFFB9
:010CB500221C
:100EDA007F05000000000000000000000000000084
:070EEA0000AE071FEE70EBE4
:010EF10022DE
:0F0F9300D2A1D2A0120EDAC2A1120EDAC2A0228F
:100EA600120DF3120DDB120E6EAD07E4FF120EF2F9
:0A0EB600C2A1D2A0120EDAD2A122CE
:100EF200EF6004C2A18002D2A1120EDAD2A0120EB9
:080F0200DAC2A0D2A1020EDA4E
:0B0DD000120DF3120DDBAF03120DF348
:100DDB00D2A1120EDAD2A0120EDA30A107C2A012E3
:080DEB000EB6C322C2A0D32200
:020DF300AD074A
:100DF500E4FCED30E704D2A18002C2A1120EDAD2E2
:0E0E0500A0ED25E0FD120EDAC2A00CBC08E440
:010E130022BC
:100E6E00E4FCD2A0120EDAED25E0FD30A10343051D
:0C0E7E0001C2A0120EDA0CBC08E8AF059F
:010E8A002245
:100F3800120F937F90120DF3120DDB7F03120DF346
:060F4800120DDB020EB6E3
:080FBD007F6C7E91DEFEDFFC7B
:010FC5002209
:100D8400120F937F91120EA6AF05AC07E412063E34
:100D94007B007A40799C784512048EE4FBFA797FD3
:080DA400784312059712067254
:010DAC002224
:100EC000AB05AA07120F937FA0120DF3120DDBAF33
:0A0ED00002120DD0120EB6020FBD83
:020F0A00AB0733
:100F0C00120F937FA0120DD0120F937FA1120EA679
:050F1C00120FBDAF053E
:010F210022AD
:10048E00EC4D6011E8497017ED33EC3304600DE468
:10049E00FCFFFEFD22E933E8330470F80206DE129B
:1004AE0006A958046009E4CC24815006285009029C
:1004BE0006E82840030206E5C0E0EB4A7044B98026
:1004CE0006D0E0FB0206D4EF4E701CBD8008EBFF99
:1004DE00EAFEE9FD80EBE98DF0A4FEE5F00205777A
:1004EE00E9CDF9EAFEEBFFEF89F0A4FCE5F0CE8949
:1004FE00F0A42EFFE435F0CD89F0A42DFEE435F006
:10050E008067EF4E7005BD80D780C3EF8BF0A4AC33
:10051E00F0EE8BF0A42CFCE435F0F8EF8AF0A42C6E
:10052E00E5F038FCE433CB8DF0A42CFCE5F03BF881
:10053E00EE8AF0A42CFCE5F038F8E433CF89F0A471
:10054E002CFCE5F038CF3400CE89F0A42FFFE5F077
:10055E003EFEE433C98DF0A42EFEE5F039CD8AF0CF
:10056E00A42FFFE5F03EFEE43DFD33D0E0FB500747
:10057E000BBB000F0206E8EC2CFCEF33FFEE33FE54
:06058E00ED33FD0206C082
:100594000206E8EC5D046005E8590470030206DE17
:1005A4001206A9580460F6EC4860F2EC7004FDFEF3
:1005B400FF22C860DB2481C85009C398600250063A
:1005C4000206E59850CAF582E9294B4A7005AB82C8
:1005D4000206D475F0007C1A7880C3EF9BEE9AED86
:1005E40099400DC3EF9BFFEE9AFEED99FDE842F0B2
:1005F400DC23ACF0D0E0FFD0E0FED0E0FDAB822005
:10060400E7101BEB60BAEC2CFCEF33FFEE33FEED8E
:1006140033FD0206C0E803F830E705C0F075F000CA
:10062400EF2FFFEE33FEED33FD40B830E7C280AA72
:1006340075F020800E75F010800575F0087D007E41
:10064400007F003392D530D503120816EC334010E6
:10065400EF33FFEE33FEED33FDEC33FCD5F0ED224A
:0E066400E5F0247EA2D513CC92E7CDCEFF2286
:10067200EDD2E7CD33EC3392D524814006E4FFFE80
:10068200FDFC22FCE4CFCECDCC24E0501174FF80DF
:10069200EDC3CC13CCCD13CDCE13CECF13CF04707C
:0706A200F030D5DE0208165E
:1006A900E9D2E7C933E833F892D5EDD2E7CD33EC97
:0706B90033FC5002B2D52210
:1006C000EC30E7100FBF000C0EBE00080DBD00049B
:1006D0000BEB6014A2D5EB13FCED92E7FD2274FF47
:1006E000FCFDFEFF22E480F8A2D574FF13FC7D80A0
:0306F000E480EFB4
:03000000020CB639
:0C0CB600787FE4F6D8FD758139020CFD52
:1006F300BC000BBE0029EF8DF084FFADF022E4CCEB
:10070300F875F008EF2FFFEE33FEEC33FCEE9DECB3
:10071300984005FCEE9DFE0FD5F0E9E4CEFD22EDF9
:10072300F8F5F0EE8420D21CFEADF075F008EF2F43
:10073300FFED33FD4007985006D5F0F222C398FD34
:050743000FD5F0EA22D1
:1007480075F008758200EF2FFFEE33FECD33CDCC68
:1007580033CCC58233C5829BED9AEC99E5829840EB
:100768000CF582EE9BFEED9AFDEC99FC0FD5F0D6C8
:10077800E4CEFBE4CDFAE4CCF9A88222B800C1B9F2
:100788000059BA002DEC8BF084CFCECDFCE5F0CB30
:10079800F97818EF2FFFEE33FEED33FDEC33FCEB69
:1007A80033FB10D703994004EB99FB0FD8E5E4F924
:1007B800FA227818EF2FFFEE33FEED33FDEC33FC11
:1007C800C933C910D7059BE99A4007EC9BFCE99A05
:1007D800F90FD8E0E4C9FAE4CCFB2275F010EF2F4A
:1007E800FFEE33FEED33FDCC33CCC833C810D7074A
:1007F8009BEC9AE899400AED9BFDEC9AFCE899F885
:0E0808000FD5F0DAE4CDFBE4CCFAE4C8F92217
:0E081600C3E49FFFE49EFEE49DFDE49CFC22F3
:100CC200020824E493A3F8E493A34003F68001F21C
:100CD20008DFF48029E493A3F85407240CC8C33333
:100CE200C4540F4420C8834004F456800146F6DF02
:100CF200E4800B0102040810204080900D42E47E43
:100D0200019360BCA3FF543F30E509541FFEE493F6
:100D1200A360010ECF54C025E060A840B8E493A3BD
:100D2200FAE493A3F8E493A3C8C582C8CAC583CAE8
:100D3200F0A3C8C582C8CAC583CADFE9DEE780BEA0
:010D8300006F
:00000001FF
