:0A07BD00C0F9A4B0999282F8809070
:0305E200012100F4
:10034100E50A640170227522FF7523FF7524FF758C
:1003510025FF7526FF7527BFE50F75F00A84900705
:10036100BD93F528E50F807DE50A6402703FE50C39
:1003710075F00A849007BD93F522F5237524BFE536
:100381000D75F00A8493F525F5267527BFE50B75E4
:10039100F00A8493F528E50B75F00A84E5F093F5EE
:1003A10029E50B30E0487524FF7527FF22E50A6433
:1003B10003703B7522BFE50975F00A849007BD9370
:1003C100F523E50975F00A84E5F093F5247525FF19
:1003D1007526FF7527BF74102509F8E6FF75F00A29
:0F03E1008493F528EF75F00A84E5F093F529224F
:10055000120341E5A0540F44E0F5A07580FF53A0BD
:100560000FE5A0540F44C0F5A0AF217401A80708FF
:100570008002C333D8FCF58053A00FE5A0540F448C
:10058000E0F5A074222521F8E6F58053A00F05219F
:09059000E521B40803E4F5212281
:0400030001051E3C99
:1005E500010A01010F01010E00010900C100C1014D
:0205F500C10241
:100239007FFF1207A11207921206381207821207CE
:100249006F12075CD2AF120599EFF46062EF146088
:100259004D14602F14601F147055E50A6401704F26
:10026900050EE50EC394044003E4F50EE50E900077
:100279000393F50F8039E50A64017033750A02D2D8
:100289008C802CE50A640370260509E509C3940AE4
:100299004003E4F509C28E7FFF1207A18011E50A28
:1002A900B4030CE4F509750A01F50EC28EC28C304F
:1002B9000038C200120746E532C4540F75F00AA48B
:1002C900FFE532540F2FF50BE533C4540F75F00ACF
:1002D900A4FFE533540F2FF50DE534C4540F75F021
:1002E9000AA4FFE534540F2FF50C30010FE50AB4C9
:1002F900020AC20112001E1201AA8F08200203027B
:10030900024FE50A6402600302024FC202D50F11CF
:1003190074102509F8A608E50E90000393F50F055A
:1003290009E509C3940A500302024FC28C750A03F6
:08033900E4F509D28E02024F27
:0E07A100E5A0540F4480F5A08F8053A00F22D6
:0F079200E5A0540F44A0F5A0E4F58053A00F227A
:1005F700022A0000022C0000022E00000230000038
:10078200438E0475D7CD75D6D4438E1043AF042261
:10075C00438E805389F0758ACD758CD4C28DC28C32
:03076C00D2A922ED
:10076F00538EBF53890FE4F58B758D4CC28FC28E9C
:03077F00D2AB22D8
:03001B000204EBF1
:1004EB00C0E0C0F0C083C082C0D075D000C000C0D7
:0D04FB0001C002C003C004C005C006C00758
:10050800052BE52B7002052AC39402E52A940050B6
:10051800028015C3E52B9403E52A940050047FFF5D
:0D0528008008752A00752B007FFE1207A1C8
:10053500D007D006D005D004D003D002D001D0001A
:0B054500D0D0D082D083D0F0D0E032C4
:03000B0002065B8F
:04065B00C0E0C0D06B
:10065F00052DE52D7002052CC394E7E52C9403407E
:09066F0008752C00752D00D20263
:05067800D0D0D0E032FB
:0300630002047C18
:10047C00C0E0C0F0C083C082C0D075D000C000C046
:0D048C0001C002C003C004C005C006C007C7
:10049900052FE52F7002052E0531E5317002053073
:1004A900C394C8E53094004008753000753100D216
:1004B90001C3E52F9490E52E94014008752E00752F
:0704C9002F00D200120550C4
:1004D000D007D006D005D004D003D002D001D00080
:0B04E000D0D0D082D083D0F0D0E0322A
:0B000E000000007F417E88DEFEDFFC6A
:0100190022C4
:100599007DFFE5B0540FFF640F603412000EE5B023
:1005A900540FFF640F6028EF24F9601724FC600FD3
:1005B90024FE60071470187D0180147D0280107D6F
:1005C90003800C7D048008EF640F600A12000EE5B9
:0805D900B0540FFF80F1AF05E3
:0105E10022F7
:0E07AF0080828486888A8C81838587898B8DE1
:09060700073250592301010101E1
:10067D00C297E4FEEF30E005D2A3008003C2A300D1
:0E068D00D29700C29700EFC313FF0EBE08E61F
:01069B00223C
:1006D900E4FFFEEFC313FF30A305430780800353F4
:0C06E900077FD29700C297000EBE08E702
:0106F50022E2
:1006F600AE07C29300C29700D293005306FEAF0620
:0C07060012067DAF0512067DC293002292
:10069C00C29300C29700D2930043070112067D1249
:0E06AC0006D9C29300D29700D2A300C2A300C9
:0106BA00221D
:10063800E4FD7F8E1206F6E4FCEC9007AF93FF749E
:10064800322CF8E6FD1206F60CBC07ED7D807F8E95
:030658000206F6A1
:10074600E4FDED9007B693FF12069C74322DF8A6D1
:05075600070DBD07EDD9
:01075B00227B
:040712007F057E00E1
:10071600EF1FAA0670011E4A600BE4FDEDC3940CA0
:0507260050EE0D80F70C
:01072B0022AB
:10061100C203D2947F0C7E00120716C2947F507ED3
:1006210000120716D2947F0A7E00120716A2949236
:0606310003120712A203F0
:0106370022A0
:0206BB00A9078D
:1006BD00E4FBC294E9139294120712D294E9C31386
:0C06CD00F90BBB08ED7F057E000207164C
:10072C00E4FBC294ECC313FCD294309403430480D6
:09073C001207120BBB08EBAF041D
:010745002291
:10001E001206117FCC1206BB7F441206BB7FC87E30
:10002E00001207161206117FCC1206BB7FBE1206F7
:10003E00BB12072CA90712072CEF540FFEE9FFFD88
:10004E00AC06E4120171E4FBFA7980783D12006689
:01005E00227F
:10006600EC4D6011E8497017ED33EC3304600DE494
:10007600FCFFFEFD22E933E8330470F80202161293
:1000860001E158046009E4CC248150062850090295
:10009600022028400302021DC0E0EB4A7044B980EA
:1000A60006D0E0FB02020CEF4E701CBD8008EBFF91
:1000B600EAFEE9FD80EBE98DF0A4FEE5F002014FD2
:1000C600E9CDF9EAFEEBFFEF89F0A4FCE5F0CE8975
:1000D600F0A42EFFE435F0CD89F0A42DFEE435F032
:1000E6008067EF4E7005BD80D780C3EF8BF0A4AC60
:1000F600F0EE8BF0A42CFCE435F0F8EF8AF0A42C9B
:10010600E5F038FCE433CB8DF0A42CFCE5F03BF8AD
:10011600EE8AF0A42CFCE5F038F8E433CF89F0A49D
:100126002CFCE5F038CF3400CE89F0A42FFFE5F0A3
:100136003EFEE433C98DF0A42EFEE5F039CD8AF0FB
:10014600A42FFFE5F03EFEE43DFD33D0E0FB500773
:100156000BBB000F020220EC2CFCEF33FFEE33FE4C
:06016600ED33FD0201F87B
:10016C0075F020800E75F010800575F0087D007E0E
:10017C00007F003392D530D50312022BEC334010A4
:10018C00EF33FFEE33FEED33FDEC33FCD5F0ED2217
:0E019C00E5F0247EA2D513CC92E7CDCEFF2253
:1001AA00EDD2E7CD33EC3392D524814006E4FFFE4D
:1001BA00FDFC22FCE4CFCECDCC24E0501174FF80AC
:1001CA00EDC3CC13CCCD13CDCE13CECF13CF047049
:0701DA00F030D5DE02022B1C
:1001E100E9D2E7C933E833F892D5EDD2E7CD33EC64
:0701F10033FC5002B2D522DD
:1001F800EC30E7100FBF000C0EBE00080DBD000468
:100208000BEB6014A2D5EB13FCED92E7FD2274FF13
:10021800FCFDFEFF22E480F8A2D574FF13FC7D806C
:03022800E480EF80
:030000000203F008
:0C03F000787FE4F6D8FD758138020437F0
:0E022B00C3E49FFFE49EFEE49DFDE49CFC22E4
:1003FC00020239E493A3F8E493A34003F68001F2DC
:10040C0008DFF48029E493A3F85407240CC8C33301
:10041C00C4540F4420C8834004F456800146F6DFD0
:10042C00E4800B01020408102040809005E2E47E79
:10043C00019360BCA3FF543F30E509541FFEE493C5
:10044C00A360010ECF54C025E060A840B8E493A38C
:10045C00FAE493A3F8E493A3C8C582C8CAC583CAB7
:10046C00F0A3C8C582C8CAC583CADFE9DEE780BE6F
:0106100000E9
:00000001FF
