:0A04F600C0F9A4B0999282F880903A
:030353000108009E
:10000E00E51B75F00A849004F693F509E51B75F06F
:10001E000A84E5F093F50AE51A75F00A8493F50B58
:10002E00E51A75F00A84E5F093F50C750DFF750E63
:10003E00FFE51C75F06484E5F075F00A8493F50F06
:0C004E00E51C75F00A84E5F093F5102223
:1002830012000EE5A0540F44E0F5A07580FF53A0C3
:100293000FE5A0540F44C0F5A0AF087401A80708E8
:1002A3008002C333D8FCF58053A00FE5A0540F445C
:1002B300E0F5A074092508F8E6F58053A00F0508BA
:0902C300E508B40803E4F5082283
:0F035600011B1E011A17011C00C102C100C101C9
:100066001204BA1204C91204AA120497E4FF120376
:10007600788F1B12005A7F011203788F1A12005ACA
:100086001202CC8F1CD2AF12021EEFF46052EF1494
:10009600603B146014146023147045051BE51BC3F4
:1000A60094634011751B63800C151BE51BC3951AE1
:1000B6005003851A1BAD1BE4FF801F051AE51AD3F2
:1000C600951B4003851B1AAD1A7F01800DE51A703A
:1000D60003751A01151AAD1A7F0112048012005A0F
:1000E600300223C2021202CC8F1CE51CC3951A50A3
:1000F60004D2018002C201E51CD3951B4004D28CB8
:100106008004C28CD2B420000302008DC2003001EC
:0D011600061204D802008D1204C902008DEB
:08005A007F6C7E91DEFEDFFCED
:01006200227B
:0F04BA00E5A0540F4480F5A07580FF53A00F22DA
:0F04C900E5A0540F44A0F5A0E4F58053A00F2246
:0F04D800E5A0540F44A0F5A075801053A00F228B
:08036500021200000214000066
:1004AA00438E0475D7CD75D6D4438E1043AF04223C
:10049700438E805389F0758AAE758CFBC28DC28CF2
:0304A700D2A922B5
:03000B0002032DC0
:04032D00C0E0C0D09C
:100331000511E511C394035004D2B48010E511C333
:0D034100940A5004C2B48005D2B4751100B6
:05034E00D0D0D0E03228
:030063000201AFE8
:1001AF00C0E0C0F0C083C082C0D075D000C000C016
:0D01BF0001C002C003C004C005C006C00797
:1001CC000513E513700205120515E51570020514EB
:1001DC00D39499E51494004008751400751500D259
:1001EC0000D3E51394C9E51294014008751200750B
:0701FC001300D2021202837E
:10020300D007D006D005D004D003D002D001D0004F
:0B021300D0D0D082D083D0F0D0E032F9
:04041C007F057E00DA
:10042000EF1FAA0670011E4A600BE4FDEDC3940C99
:0504300050EE0D80F705
:0104350022A4
:10030600C203D2947F0C7E00120420C2947F507EDA
:1003160000120420D2947F0A7E00120420A2949236
:060326000312041CA203F7
:01032C0022AE
:0203E100A9076A
:1003E300E4FBC294E913929412041CD294E9C3135C
:0C03F300F90BBB08ED7F057E0002042022
:10043600E4FBC294ECC313FCD294309403430480CF
:0904460012041C0BBB08EBAF040F
:01044F00228A
:1002CC001203067FCC1203E17F441203E17FE87E28
:1002DC00031204201203067FCC1203E17FBE12032B
:1002EC00E1120436A907120436EF75F010A4FFAE24
:0902FC00F0E9C4540FFDEF4DFFC1
:0103050022D5
:0A036D00021800000116000117FF3E
:10021E00E5B0540F640F600A0519E5197009051849
:10022E008005E4F518F519C3E519942CE518940129
:10023E00402DE4F518F519751601E5B0540F24F9A3
:10024E00601A24FC601124FE6008147012751701E8
:10025E00800D75170280087517038003751704E566
:10026E00B0540FFFE516B40109BF0F06E4F516AF43
:04027E0017227FFFC5
:010282002259
:100450007F05000000000000000000000000000018
:0704600000AE071FEE70EB78
:010467002272
:0F04E700D2A1D2A0120450C2A1120450C2A0226E
:0A050000C2A1D2A0120450D2A12221
:10046800EF6004C2A18002D2A1120450D2A01204EB
:0804780050C2A0D2A102045001
:0B039D001203C01203A8AF031203C03C
:1003A800D2A1120450D2A012045030A107C2A01248
:0803B8000500C322C2A0D322FC
:0203C000AD0787
:1003C200E4FCED30E704D2A18002C2A1120450D2B3
:0E03D200A0ED25E0FD120450C2A00CBC08E412
:0103E00022FA
:1003FF00E4FCD2A0120450ED25E0FD30A10343052B
:0C040F0001C2A01204500CBC08E8AF05AC
:01041B0022BE
:10048000AB05AA071204E77FA01203C01203A8AFAE
:070490000212039D020500AA
:02037800AB07D1
:10037A001204E77FA012039D1204E77FA11203C0B3
:10038A001203A81203FFAD07E4FF12046812050066
:02039A00AF05AD
:01039C00223E
:03000000020123D7
:0C012300787FE4F6D8FD75812002016AA7
:10012F00020066E493A3F8E493A34003F68001F280
:10013F0008DFF48029E493A3F85407240CC8C333D1
:10014F00C4540F4420C8834004F456800146F6DFA0
:10015F00E4800B0102040810204080900353E47EDA
:10016F00019360BCA3FF543F30E509541FFEE49395
:10017F00A360010ECF54C025E060A840B8E493A35C
:10018F00FAE493A3F8E493A3C8C582C8CAC583CA87
:10019F00F0A3C8C582C8CAC583CADFE9DEE780BE3F
:010377000085
:00000001FF
